:020000040000fa
:08000000c4260400000000000a
:020000040000fa
:10280000c4260400000000003e290400000000006f
:102810003e290400000000003e29040000000000e2
:102820003e290400000000003e29040000000000d2
:102830003e290400000000003e29040000000000c2
:102840003e290400000000003e29040000000000b2
:102850003e290400000000003e29040000000000a2
:102860003e290400000000003e2904000000000092
:102870003e290400000000003e2904000000000082
:102880003e290400000000003e2904000000000072
:1028900058500400000000003e2904000000000021
:1028a0003e290400000000003e2904000000000052
:1028b0003e290400000000003e2904000000000042
:1028c0003e290400000000003e2904000000000032
:1028d0003e290400000000003e2904000000000022
:1028e0003e290400000000003e2904000000000012
:1028f0003e290400000000003e2904000000000002
:102900003e290400000000003e29040000000000f1
:102910003e290400000000003e29040000000000e1
:102920003e290400000000003e29040000000000d1
:102930003e290400000000003e29040000000000c1
:102940003e290400000000003e29040000000000b1
:102950003e290400000000003e29040000000000a1
:102960003e290400000000003e2904000000000091
:10297000e6550400000000003e29040000000000ad
:020000040000fa
:102980000000000000000000000000000000000047
:102990000000000000000000000000000000000037
:1029a0000000000000000000000000000000000027
:1029b0000000000000000000000000000000000017
:104d8000ffffff00ffffff000fc420000e7f220087
:104d90000e018800000000000c000700208c22009b
:104da0000100200011000700000020000000e000ca
:104db0000200320000000200000000000044020077
:104dc000000000000040da000000fe004440a9009e
:104dd000c00820000000e0000300320000002000b6
:104de000a00188004440a80000000600910188004e
:104df000800078000000eb0015003700e2804000e2
:104e000032a0b4009101ba00e280400032a0b400a8
:104e10009102ba00e280400032a0b4000002eb0030
:104e2000472bde00f507b200602ce10004003a00d9
:104e30000059eb008301e900fdff3e00040037004c
:104e40006128e100010032000082eb00040007004d
:104e50001101ba000200e000e8ff3a00000006007d
:104e60003159ba008301e9000c0032002159ba001f
:104e70008301e900080032000400e00003003a006a
:104e8000e280400032a0b400f5ff370011d9ba002b
:104e90008301e900faff3a008100e800e180400068
:104ea00032a0b400000006000001780000c2b30088
:104eb000010037000201e8009240780080cf5000e6
:104ec000fcff3200e9cf5000faff3200d0c2b3003d
:104ed00080cf500003003a000201e80014c0b30084
:104ee000050037000042eb00b0c2b30080cf500095
:104ef00001003a000201e8008000eb0005fd2f00f0
:104f0000040037006a08b9000080410085004000b5
:104f10000201e8009201fb0005804100e90f50000a
:104f2000f8ff36000404e000010032008100ea00ce
:104f30000100780000000600889fbe000004be004b
:104f40000000e00003003a00a85980000800e000db
:104f5000130032000800be002800070000044400cf
:104f60001804e00004003a000000eb00a05988009b
:104f7000000478000a0037000800be000b0007009c
:104f800000004400a05988001004e0000200320034
:104f90000058eb00010037000000eb00a05988002a
:104fa000080078004f04be0000000600889fbe0085
:104fb0008a9fbe0080057800010578006044b80033
:104fc0000200370061044400e0844c006b407c0028
:104fd0000004e000050032008000fb000a007800b9
:104fe0001a0007000000e000f6ff32000800be00d3
:104ff0004f05be004f04be0000000600889fbe00a3
:105000008a9fbe0080057800010578006044b800e2
:105010000200370061044400e0844c006b407c00d7
:105020000004e000050032008000fb000a00780068
:10503000060007000000e000f6ff3a000800be008e
:105040004f05be004f04be0000000600104178006e
:10505000814f5100040032000000e8000204e0002b
:0c506000faff3a000000eb000000060020
:020000040000fa
:020000040001f9
:0457f00010ff0000a6
:020000040000fa
:020000040001f9
:0457f400c0fc0000f5
:020000040000fa
:020000040001f9
:0457f800ae4b0000b4
:020000040000fa
:020000040001f9
:0457fc00603d00000c
:020000040000fa
:100008003e2900003e2900003e2900003e2900004c
:100018003e2900003e2900003e2900003e2900003c
:100028003e2900003e2900003e2900003e2900002c
:100038003e2900003e2900003e2900003e2900001c
:100048003e2900003e2900003e2900003e2900000c
:100058003e290000585000003e2900003e290000bb
:100068003e2900003e2900003e2900003e290000ec
:100078003e2900003e2900003e2900003e290000dc
:100088003e2900003e2900003e2900003e290000cc
:100098003e2900003e2900003e2900003e290000bc
:1000a8003e2900003e2900003e2900003e290000ac
:1000b8003e2900003e2900003e2900003e2900009c
:1000c8003e2900003e2900003e2900003e2900008c
:1000d8003e2900003e2900003e2900003e2900007c
:1000e8003e2900003e2900003e2900003e2900006c
:1000f8003e2900003e2900003e2900003e2900005c
:100108003e2900003e2900003e2900003e2900004b
:100118003e2900003e2900003e2900003e2900003b
:100128003e2900003e2900003e2900003e2900002b
:100138003e2900003e2900003e2900003e2900001b
:100148003e2900003e2900003e2900003e2900000b
:100158003e2900003e2900003e2900003e290000fb
:100168003e2900003e2900003e2900003e290000eb
:100178003e2900003e290000e65500003e29000007
:100188003e2900003e2900003e2900003e290000cb
:100198003e2900003e2900003e2900003e290000bb
:1001a8003e2900003e2900003e2900003e290000ab
:1001b8003e2900003e2900003e2900003e2900009b
:1001c8003e2900003e2900003e2900003e2900008b
:1001d8003e2900003e2900003e2900003e2900007b
:1001e8003e2900003e2900003e2900003e2900006b
:0801f8003e2900003e29000031
:020000040000fa
:100208003e2900003e2900003e2900003e2900004a
:100218003e2900003e2900003e2900003e2900003a
:100228003e2900003e2900003e2900003e2900002a
:100238003e2900003e2900003e2900003e2900001a
:100248003e2900003e2900003e2900003e2900000a
:100258003e290000585000003e2900003e290000b9
:100268003e2900003e2900003e2900003e290000ea
:100278003e2900003e2900003e2900003e290000da
:100288003e2900003e2900003e2900003e290000ca
:100298003e2900003e2900003e2900003e290000ba
:1002a8003e2900003e2900003e2900003e290000aa
:1002b8003e2900003e2900003e2900003e2900009a
:1002c8003e2900003e2900003e2900003e2900008a
:1002d8003e2900003e2900003e2900003e2900007a
:1002e8003e2900003e2900003e2900003e2900006a
:1002f8003e2900003e2900003e2900003e2900005a
:100308003e2900003e2900003e2900003e29000049
:100318003e2900003e2900003e2900003e29000039
:100328003e2900003e2900003e2900003e29000029
:100338003e2900003e2900003e2900003e29000019
:100348003e2900003e2900003e2900003e29000009
:100358003e2900003e2900003e2900003e290000f9
:100368003e2900003e2900003e2900003e290000e9
:100378003e2900003e290000e65500003e29000005
:100388003e2900003e2900003e2900003e290000c9
:100398003e2900003e2900003e2900003e290000b9
:1003a8003e2900003e2900003e2900003e290000a9
:1003b8003e2900003e2900003e2900003e29000099
:1003c8003e2900003e2900003e2900003e29000089
:1003d8003e2900003e2900003e2900003e29000079
:1003e8003e2900003e2900003e2900003e29000069
:0803f8003e2900003e2900002f
:020000040000fa
:10506c001201000000020000020000000008000015
:10507c00d804000079f900000001000001020000d2
:10508c0000010000090200004300000002010000c2
:10509c0000c00000fa09000004000000000100003c
:1050ac0002020000010000000524000000100000b6
:1050bc000104000024020000020500002406000088
:1050cc0000010000052400000100000001070000a1
:1050dc000582000003080000000200000904000023
:1050ec0001000000020a00000000000000070000a0
:1050fc00050300000240000000000000070500004e
:10510c0083020000400000000000000004030000c7
:10511c000904000012030000740000006b00000082
:10512c0072000000770000006f00000072000000a9
:10513c006b0000007300000018030000500000001a
:10514c0049000000430000007200000061000000f4
:10515c0074000000630000006800000042000000c2
:10516c004f0000005800000048a800008ca8000068
:08517c0090a80000a2a80000a9
:020000040000fa
:108800000200fa000000eb00203a8800300020004f
:1088100000168800300a200040168800cf22a800e9
:10882000ce82a800c682a800cfa2a800cfc2a8000e
:1088300080252000000f780044a7a8001e0fe90043
:108840000080eb009e0f1000fcff3a00716c2000ce
:108850009140780000ceb30000c060007040b300cb
:10886000c7e6b700816c20009140780000ceb300cd
:1088700000c060000034a000c8e6b700e05320004c
:10888000101288000000eb002012880041e2a800ce
:108890008540a900910a20009140780080cfb30064
:1088a00000c06000a9e0b7009540a900400020008a
:1088b0007008880000032800900888004004280001
:1088c00000198800c04220001019880020f0210003
:1088d000201988000000eb004019880000ff2f00dd
:1088e00060198800f00020008019880095a0a80079
:1088f0000000eb00905488000040eb0010eab70045
:108900000040eb0011eab70010cabf0061406000f0
:108910006140600061406000614060004201dd0034
:10892000c12c200091407800b0cfb30000c060009f
:1089300002407000cce2b70010cabf000080fb000c
:108940000000d10061406000614060006140600053
:10895000614060004301dd00c12c2000914078009f
:1089600070cfb30000c0600002407000cce2b700de
:1089700010cabf000080fb004200de0061406000c2
:108980006140600061406000c700dd00cdc2bf00f3
:108990000074a10001407000cde2b7000040eb0080
:1089a00096eab7000040eb0000e8b7001800370077
:1089b00000c8bf000080fb0080004000e091200064
:1089c000808040000000eb008008780000c8bf00f5
:1089d0000080fb0080004000409320008080400029
:1089e0000000eb008008780000c8bf000080fb009a
:1089f00080004000a09f2000808040000000eb002d
:108a00008008780000c8bf000040e80000e8b70018
:108a100000c8bf00ea4f5000e5ff360040062000c6
:108a200091070700cdc2a8000040eb0000e8b700a6
:108a30000b00370000c8bf008080fb0020a1200091
:108a4000808040000040eb0080487800cda2a80064
:108a5000cda2a90000c8bf000040e80000e8b700b0
:108a600000c8bf00e74f5000f2ff3600c403070004
:108a700013000700fc070700ad0e070010c0b3008d
:108a800000e8b70010c0b30001e8b70000003700ed
:108a900010518000ff0f5000fdff360088c4bf005a
:108aa000624060000004e000f9ff3a008b04070018
:108ab000da0607000801070061140700f4ff370019
:108ac0000000fa0031c0b300b0c0b300eb000700f3
:108ad00011c0b300c0c0b300e80007008040eb0045
:108ae000f0c0b300e5000700f1c0b300a0c0b300c0
:108af000e200070011c8b30010c0b300df00070098
:108b000001c1b30020c0b300dc0007008040eb00cf
:108b100030c0b300d90007008040eb0040c0b30074
:108b2000d60007008040eb0050c0b300d300070020
:108b30008040eb0060c0b300d00007008040eb0035
:108b400070c0b300cd0007008040eb0080c0b300d0
:108b5000ca0007000040eb0000e8b7000f00370034
:108b600000c8bf008080fb0000042000010050000e
:108b700042002000110009000200d8008040780067
:108b8000a0c0b300bd00070010002000360707009a
:108b900000c8bf000040e80000e8b70001802000e6
:108ba00091407800f0c3b30080cf5000ecff360056
:108bb000f1c0b300a0c0b300b000070021c4b300ef
:108bc00010c0b300ad00070031c2b30020c0b30035
:108bd000aa0007008040eb0030c0b300a7000700e8
:108be0008040eb0040c0b300a40007008040eb00d1
:108bf00050c0b300a10007008040eb0060c0b3008c
:108c00009e0007008040eb0070c0b3009b0007008f
:108c10008040eb0080c0b300980007000040eb00ec
:108c200000e8b7000f00370000c8bf008080fb00dd
:108c30000004200001005000420020001100090043
:108c40000200d80080407800a0c0b3008b0007006d
:108c5000100020000407070000c8bf000040e80023
:108c600000e8b7000180200091407800f0c3b30015
:108c700080cf5000ecff3600f1c0b300a0c0b300bd
:108c80007e00070041c2b30010c0b3007b000700a4
:108c900041c4b30020c0b3007800070071c0b30026
:108ca00030c0b300750007008040eb0040c0b30047
:108cb000720007008040eb0050c0b3006f00070057
:108cc0008040eb0060c0b3006c0007008040eb0008
:108cd00070c0b300690007008040eb0080c0b300a3
:108ce000660007000040eb0000e8b7000f00370007
:108cf00000c8bf008080fb0000042000010050007d
:108d000042002000110009000200d80080407800d5
:108d1000a0c0b3005900070010002000d2060700d1
:108d200000c8bf000040e80000e8b7000180200054
:108d300091407800f0c3b30080cf5000ecff3600c4
:108d4000f1c0b300a0c0b3004c00070001c1b300e4
:108d500010c0b3004900070001c8b30020c0b30031
:108d6000460007008040eb0030c0b300430007001e
:108d70008040eb0040c0b300400007008040eb00a3
:108d800050c0b3003d0007008040eb0060c0b3005e
:108d90003a0007008040eb0070c0b30037000700c6
:108da0008040eb0080c0b300340007000040eb00bf
:108db00000e8b7000f00370000c8bf008080fb004c
:108dc00000042000010050004200200011000900b2
:108dd0000200d80080407800a0c0b3002700070040
:108de00010002000a006070000c8bf000040e800f7
:108df00000e8b7000180200091407800f0c3b30084
:108e000080cf5000ecff3600a2cabf000080fb00fc
:108e100007110700a9eab700a9cabf00ef4f500029
:108e200004003600f1c0b300a0c0b3001300070077
:108e30000400370091aa200091407800a0c0b30040
:108e40000e00070010c0b30000e8b70006003700ae
:108e500000c8bf008040eb000800070000c8bf004a
:108e60000040e80000e8b70000c8bf00e84f50002d
:108e7000f7ff36000080fa00000006000200fa004a
:108e8000004f7800114798001e80fb00c800dd00ed
:108e900000f02f00808060001e4090000080fb00ea
:108ea0000080400060548800cd22a90040c2bf006d
:108eb000624060000004e000fcff3a006054800063
:108ec000401288001000200054060700cd22a800a0
:108ed0000080fa00000006001200fa00f1c0b300a2
:108ee000f0852000bf1207000004e000a20232005b
:108ef000f185200091407800c0c6b30080cf5000bb
:108f000089003a00018620009140780000c3b30038
:108f100080cf50000500320001862000914078008b
:108f200010c3b30080cf50007f003a0062c8bf007a
:108f30005d0607005de8b7005dc8bf00e74f500061
:108f40008d023e0061c8bf00570607005ce8b7000d
:108f500060c8bf00540607005ee8b7005dc8bf00e8
:108f6000e34f500038003e005ec8bf000004e00040
:108f7000140032005cc8bf000080fb00e301100059
:108f80005cc8bf000080fb00e300100020a12000af
:108f90000080400010407800004178005dc8bf00ac
:108fa0008080fb00100020000100dd000040710007
:108fb0008040780020a12000008041000148780016
:108fc000140037005cc8bf000080fb00e301100004
:108fd0005cc8bf000080fb00e300100020a120005f
:108fe0000080400010407800004178005dc8bf005c
:108ff0008080fb00100020000100dd0000c0ea00be
:10900000004061008040780020a1200000804100e5
:10901000014878005cc8bf000080fb00e30010003e
:1090200020a1200000804000104178005cc8bf00f3
:109030008040780040c0b30001405000824078007a
:109040008eff07004c0237005ec8bf000004e0003e
:10905000140032005cc8bf000080fb00e201100079
:109060005cc8bf000080fb00e200100020a12000cf
:109070000080400010407800004178005dc8bf00cb
:109080008080fb00100020000100dd000040710026
:109090008040780020a12000008041000148780035
:1090a000140037005cc8bf000080fb00e201100024
:1090b0005cc8bf000080fb00e200100020a120007f
:1090c0000080400010407800004178005dc8bf007b
:1090d0008080fb00100020000100dd0000c0ea00dd
:1090e000004061008040780020a120000080410005
:1090f000014878005cc8bf000080fb00e20010005f
:1091000020a1200000804000104178005cc8bf0012
:109110008040780030c0b3000140500082407800a9
:1091200056ff070014023700f185200091407800b7
:10913000c0c6b30080cf50009d003a0001862000d9
:109140009140780020c7b30080cf500098003a00cb
:10915000e1a82000f085200077ef0700404088005c
:10916000e1a820000000eb0073ef070040408800fa
:10917000404080004cef0700504f9800e1a82000cd
:109180000000eb006cef070040408800404080008a
:1091900045ef0700404f98000040eb00304f98002b
:1091a0004e4890000080fb00610060000004e00079
:1091b000030032003e4890000034a000304f980079
:1091c0004e4890000080fb000000d100610060006c
:1091d0000004e000030032003e4890000024a0009c
:1091e000304f98004e4890000080fb004200de00a7
:1091f000610060000004e000030032003e4890007f
:109200000014a000304f98004e4890000080fb00f2
:109210004300de00610060000004e0000300320053
:109220003e4890000004a000304f98005e48900037
:10923000e34f5000040036003e4890000080fb00e1
:109240000000d100304f9800d0548000e10f500052
:1092500019003a000040eb0000e8b70011003700a9
:1092600000c8bf008080fb0020a12000808040005b
:109270000040eb008048780000c8bf008080fb0001
:1092800020a12000008040009040780000c8bf006e
:109290000040e800f9fe070000c8bf000040e800f9
:1092a00000e8b70000c8bf00e74f5000ecff3600f1
:1092b0000000eb00d05488000040eb0000e8b7004d
:1092c000370037003e4890008080fb0000c8bf0098
:1092d0000080fb000088de00610060000004e00008
:1092e0001200320000c8bf008081fb0000c8bf0030
:1092f0008080fb0020a1200000804000104078000a
:10930000004178005e4890008080fb001000200043
:109310000100dd00004071008040780020a12000a5
:1093200000804100014878001200370000c8bf00eb
:109330008081fb0000c8bf008080fb0020a12000ce
:109340000080400010407800004178005e489000a6
:109350008080fb00100020000100dd0000c0ea005a
:10936000004061008040780020a120000080410082
:109370000148780000c8bf008080fb0020a12000c9
:10938000008040009040780000c8bf000040e80026
:10939000bafe070000c8bf000040e80000e8b700c0
:1093a00000c8bf00e74f5000c6ff3600720137000b
:1093b000f185200091407800c0c6b30080cf5000f6
:1093c0007c003a00018620009140780030c6b3004e
:1093d00080cf500077003a00e1a82000f0852000ff
:1093e000d5ee070040408800e1a820000000eb0017
:1093f000d1ee07004040880040408000aaee070000
:10940000204f9800e1a820000000eb00caee070002
:109410004040880040408000a3ee0700104f9800b5
:10942000d0548000e10f50001e003a000040eb00d5
:1094300000e8b7001600370000c8bf000080fb003e
:10944000e300100020a12000808040000040eb00dd
:109450008048780000c8bf000080fb00e3001000d7
:1094600020a12000008040001041780000c8bf000b
:109470008040780040c0b300014050008240780036
:109480007efe070000c8bf000040e80000e8b7000b
:1094900000c8bf00e74f5000e7ff36000000eb00b8
:1094a000d05488002e489000e14f50000300320055
:1094b0002e489000e24f500025003a0001cfb30043
:1094c0001e48900001406000004f98002e48900018
:1094d0000080fb00620110002e4890000080fb001d
:1094e000e200100020a12000008040001040780021
:1094f000ef4060000e48900000c07000804078008f
:1095000020a1200000004100014878002e48900072
:109510000080fb00e200100020a12000008040003d
:1095200010417800ae48900030c0b30001405000b8
:109530008240780051fe070010002000b7040700a9
:109540001e4890006f406000104f980006003700e2
:109550002e489000e34f500003003a001e48900050
:109560006f406000104f98002e4890000080fb0074
:10957000e300100020a12000008040009e489000e1
:10958000014878002e4890000080fb00e3001000a6
:1095900020a120000080400010417800ae489000db
:1095a00040c0b300014050008240780033fe070005
:1095b000f1003700f18520009140780010c6b3001b
:1095c00080cf500022003a000186200091407800b0
:1095d00050c6b30080cf50001d003a00e1a8200023
:1095e000f085200054ee070040408800e1a82000ec
:1095f0000000eb0050ee0700404088004040800033
:1096000029ee070070479800e1a820000000eb0059
:1096100049ee0700404088004040800022ee0700ed
:10962000604798006e4090000004e00004003200a3
:109630007e4090000080fb006e020700ce003700e5
:109640007e4090000080fb0081020700ca003700c6
:10965000f18520009140780060c6b30080cf5000b3
:1096600036003a00018620009140780020c7b30000
:1096700080cf500031003a00e1a82000f0852000a2
:109680002dee070040408800e1a820000000eb001c
:1096900029ee0700404088004040800002ee0700ad
:1096a00050479800e1a820000000eb0022ee0700e0
:1096b0004040880040408000fbed07005ee8b700b6
:1096c0005e4090000080fb00000f98000e089000a4
:1096d000e10f50000d0032008e089000e28f500024
:1096e000100032000e0890000000e000010032007f
:1096f000a1003700a1cabf008080fb004e4090004f
:109700000080fb003d0f07009b0037009fcabf0091
:109710008080fb004e4090000080fb00370f070068
:1097200095003700a0cabf008080fb004e4090002b
:109730000080fb00310f07008f003700f18520000b
:109740009140780060c6b30080cf500036003a00e8
:10975000018620009140780030c6b30080cf5000d1
:1097600031003a00e1a82000f0852000f2ed07006a
:1097700040408800e1a820000000eb00eeed07006b
:109780004040880040408000c7ed07003047980007
:10979000e1a820000000eb00e7ed07004040880052
:1097a00040408000c0ed07005ee8b7003e409000fa
:1097b0000080fb0070079800fe009000e18f5000d1
:1097c0000d0032007e009000e20f500010003200c9
:1097d000fe0090000100e00001003200660037004a
:1097e0009ecabf008080fb002e4090000080fb00de
:1097f000020f0700600037009ccabf008080fb009a
:109800002e4090000080fb00fc0e07005a0037003d
:109810009dcabf008080fb002e4090000080fb00ae
:10982000f60e070054003700f185200091407800c3
:1098300090c6b30080cf50000e003a00e1a820008f
:10984000f0852000bced070040408800e1a8200022
:109850000000eb00b8ed0700404088004040800069
:1098600091ed070080407800a0c0b30083fd0700a1
:1098700041003700f18520009140780040c7b300d7
:1098800080cf50000f003a00e1a82000f0852000b2
:10989000a9ed070040408800e1a820000000eb008f
:1098a000a5ed070040408800404080007eed0700a5
:1098b000104798009e409000f0c0b3006ffd070075
:1098c0002d003700f18520009140780030c7b300ab
:1098d00080cf50000f003a00e1a82000f085200062
:1098e00095ed070040408800e1a820000000eb0053
:1098f00091ed070040408800404080006aed07007d
:10990000004f78009e407800c0c0b3005bfd0700a8
:1099100019003700f18520009140780060c6b3003f
:1099200080cf500014003a0060c6b3000ae8b700c8
:10993000a0c0b3000be8b70030c0b3000ce8b7001c
:1099400067cabf000004e00008003a00a0802000c1
:109950004053880030c0b3006aeab70010c0b300bb
:109960006beab70010c0b30067eab700b410070095
:1099700020002000a90307000080fa000000060074
:109980000000fa000040eb0000e8b7002c003700b0
:1099900000c8bf000080fb0080004000e08620007f
:1099a000808040000000eb008008780000c8bf0005
:1099b0000080fb0080004000e087200080804000a5
:1099c0000000eb008008780000c8bf000080fb00aa
:1099d00080004000e0882000808040000000eb0014
:1099e000800878000040eb0001e8b7000e00370067
:1099f00000c8bf000081fb0001c8bf008080fb00e1
:109a00004310dd000100400080004000e08920009c
:109a1000808040000000eb008008780001c8bf0093
:109a20000040e80001e8b70001c8bf00e74f500060
:109a3000efff360000c8bf000040e80000e8b700b4
:109a400000c8bf00e74f5000d1ff36000080fa0089
:109a5000000006000400fa00000f780011079800cb
:109a60000000eb00405488001e0078008000400099
:109a7000e086200000804000100178001e00780081
:109a800080004000e0872000008040001000780047
:109a900000016900110020001e0090000008dd0098
:109aa000000061000000e0001b0032001e00780092
:109ab00080004000e0862000008040001001780017
:109ac0001e00780080004000e088200000804000f8
:109ad0001000780000016900110020001e009000b5
:109ae0000008dd00000061000000e0000a00320014
:109af0001e0078009e0090004300dd000100400041
:109b000080004000e0892000808040000000eb00e1
:109b1000800878006e0037001e007800800040004a
:109b2000e086200000804000100178001e007800d0
:109b300080004000e0872000008040001000780096
:109b400000016900110020001e0090000008dd00e7
:109b5000000061000000e0005d003a001e00780097
:109b600080004000e0862000008040001001780066
:109b70001e00780080004000e08820000080400047
:109b80001000780000016900110020001e00900004
:109b90000008dd00000061000000e0004c00320021
:109ba0001e0078009e0090004300dd000100400090
:109bb00080004000e0892000008040001000780014
:109bc000e30f500042003e001e0178009e0190000d
:109bd0004310dd000300400080004000e0892000c9
:109be00000804000100078000002e8004310dd0013
:109bf0000300400080004000e08920000080400019
:109c0000040878004310dd0003004000800040009d
:109c1000e08920000080400010007800e40f500030
:109c20002b003a001e00780080004000e0862000f3
:109c30000080400010017800110020001e009000fc
:109c40000008dd00000061000000e0000f003200ad
:109c50009e0178001e00780080004000e08820000f
:109c60000080400010017800110020001e009000cc
:109c70000008dd000001710083804100e0882000c1
:109c800000804000020878000f0037009e01780035
:109c90001e00780080004000e08820000080400026
:109ca00010017800110020001e0090000008dd0067
:109cb0000080ea000001610083804100e08820000c
:109cc0000080400002087800100020004054880006
:109cd000405480000080fa00000006000000fa00f6
:109ce00090cabf000004e00003003a00cdc2a90002
:109cf000cda2a800cdc2a80090cabf0000e8b7005e
:109d0000a0003700cda2a8000040eb0002e8b70099
:109d1000040037000000000002c8bf000040e80057
:109d200002e8b70002c8bf00e44f5000f9ff360058
:109d3000cda2a90000c8bf000081fb0000c8bf0081
:109d40000080fb0080004000e08620000080400092
:109d50009001780082004100e087200000804000f0
:109d600003087800c482a90010002000ab0207009d
:109d7000c482a8000040eb0001e8b7007b00370078
:109d8000cac2bf000042b2000004e000130032006b
:109d900000c8bf008081fb0000c8bf000080fb003e
:109da00080004000e0862000008040001001780024
:109db00001c8bf008080fb00100020000100dd0012
:109dc0000080ea000001610083804100e0862000fd
:109dd00000804000020878001100370000c8bf0072
:109de0008081fb0000c8bf000080fb0080004000b5
:109df000e0862000008040001001780001c8bf000c
:109e00008080fb00100020000100dd0000017100d7
:109e100083804100e0862000008040000208780036
:109e2000cc82a8000040eb0002e8b7000400370035
:109e30000000000002c8bf000040e80002e8b700d0
:109e400002c8bf00e14f5000f9ff3600cc82a900e4
:109e500001c8bf008080fb0000c8bf000080fb007d
:109e6000fcfe07000000e0003d00320000c8bf001b
:109e70000080fb0080004000e08620000080400061
:109e80001001780001c8bf008080fb001000200096
:109e90000100dd00000061000000e000070032006a
:109ea0008acabf008080fb00a08020008080400024
:109eb00000c7b30080487800060037008acabf0098
:109ec0008080fb00a08020008080400020c7b3007d
:109ed0008048780001c8bf00e34f50000f003e00eb
:109ee0008acabf000080fb000001e80001c8bf0073
:109ef0000080fb004400dd008040780000c8bf0007
:109f000000c050006340400080407800a0802000e6
:109f100000004100014878000e0037008acabf00e7
:109f20000080fb000001e80001c8bf000080fb00ca
:109f30004400dd008040780000c8bf0000c0500031
:109f400000c0e80080407800a080200000004100b0
:109f5000014878008acabf0000c0e8008aeab7005a
:109f600001c8bf000040e80001e8b70001c8bf0019
:109f7000e74f500082ff360000c8bf000040e800f5
:109f800000e8b70000c8bf008080fb0090cabf0097
:109f90000080fb0064004000808f500059ff3500b6
:109fa0008acabf000004e0000d00320067cabf008b
:109fb0000004e0000a003a00a0802000405388001e
:109fc0008acabf006aeab70010c0b3006beab700e4
:109fd00010c0b30067eab7000040eb008aeab700a0
:109fe000170f0700200020000c0207000080fa0075
:109ff000000006000200fa00000f7800a000200018
:10a000009e0f100010003c0090548000f17f200053
:10a01000010060000000e00002003a001000200093
:10a02000a0548800110020001e0078008008dd0088
:10a0300090548000008070009054880098cabf003f
:10a040000040e80098eab7000080fa00000006002f
:10a050000200fa00000f7800a00020009e0f100000
:10a0600011003c00110020001e0078000008dd00f7
:10a070008080ea0090548000008060009054880046
:10a0800091548000f07f2000008060000000e0001c
:10a0900002003a000000eb00a054880098cabf00fc
:10a0a0000040e90098eab7000080fa0000000600ce
:10a0b0003600f800809fbe00829fbe00841f78009b
:10a0c0003400f80000002000a00188000800fa0019
:10a0d00085a0a90010cabf00614060006140600017
:10a0e00061406000614060004201dd00c12c200041
:10a0f00091407800b0cfb30000c060000240700013
:10a10000cce2b70010cabf000080fb000000d10005
:10a11000614060006140600061406000614060003b
:10a120004301dd00c12c20009140780070cfb300c6
:10a1300000c0600002407000cce2b70010cabf004f
:10a140000080fb004200de00614060006140600072
:10a1500061406000c700dd00cdc2bf000074a100f7
:10a1600001407000cde2b70096cabf008081fb00bd
:10a170000118800040188000808040008018800016
:10a180000080400032002000110009000280d80049
:10a19000000178007618b90080007800a0942000b3
:10a1a000008040000208780096cabf008081fb0052
:10a1b00011188000501880008080400090188000a6
:10a1c0000080400032002000110009000280d80009
:10a1d000000178007618b9008080e800a094200083
:10a1e000008040000208780096cabf008081fb0012
:10a1f000211880006018800080804000a018800036
:10a200000080400032002000110009000280d800c8
:10a21000000178007618b900e4004000a094200006
:10a22000008040000208780011cabf00e24f5000d1
:10a230001700360097cabf008081fb0010cabf001c
:10a240000080fb006302400031188000701880001d
:10a2500080804000b0188000008040003200200064
:10a26000110009000280d800000178006b18b900c5
:10a270000400400080004000a094200000804000c6
:10a280000208780097cabf000040e80097eab700cc
:10a2900011cabf000040e80011eab70011cabf00b0
:10a2a000e64f50000c0036000040eb0097eab70084
:10a2b0000040eb0011eab70010cabf000040e80000
:10a2c00010eab70010cabf00e84f500002003a0081
:10a2d0000040eb0010eab70096cabf000040e8005b
:10a2e00096eab70096cabf00e84f500002003a0055
:10a2f0000040eb0096eab7000040eb0003e8b7002f
:10a300005c00370096cabf000004e00056003a0027
:10a3100003c8bf008080fb00100020008100dd002a
:10a32000905480000081600003c8bf008080fb0063
:10a33000100020000100dd00800f51004a003a00ab
:10a340000000eb00100798000040eb0004e8b700a5
:10a350001000370004c8bf008080fb0003c8bf00a6
:10a360000081fb006b08b900020040008000400043
:10a37000a094200000804000900078001e00900013
:10a38000010040001007980004c8bf000040e8002a
:10a3900004e8b70004c8bf00e74f5000edff3600e7
:10a3a00003c8bf008080fb001e0090004301de0058
:10a3b0008180400040932000008040000208780027
:10a3c00003c8bf000080fb008000400040932000d5
:10a3d000008040001001780003c8bf000080fb002f
:10a3e00080004000a09f2000008040001000780006
:10a3f00000005100300798003e0090000000e0008f
:10a4000003003d003e0090000000ea003007980085
:10a410003e009000e40f50001300340003c8bf005a
:10a420000080fb0080004000e09120008080400020
:10a43000100020008008780003c8bf000081fb00e6
:10a4400003c8bf000080fb00800040004093200054
:10a45000008040009001780082004100a09f200011
:10a46000008040000308780003c8bf000040e800f7
:10a4700003e8b70003c8bf00e24f5000a1ff360059
:10a4800030c0b30003e8b7005a00370097cabf00d6
:10a490000004e00054003a0003c8bf008080fb00c5
:10a4a000100020008100dd009054800000816000d9
:10a4b00003c8bf008080fb00100020000100dd0009
:10a4c000800f510048003a000000eb00000f7800b8
:10a4d0000040eb0004e8b7000e00370004c8bf00de
:10a4e0008080fb0003c8bf000081fb006b08b9003f
:10a4f0000200400080004000a09420000080400046
:10a50000100078001e0f400004c8bf000040e800a3
:10a5100004e8b70004c8bf00e34f5000efff360067
:10a5200003c8bf008080fb001e0078004201de00ef
:10a5300081804000409320000080400002087800a5
:10a5400003c8bf000080fb00800040004093200053
:10a55000008040001001780003c8bf000080fb00ad
:10a5600080004000a09f2000008040001000780084
:10a5700000005100200798002e0090000000e0002d
:10a5800003003d002e0090000000ea002007980024
:10a590002e009000e40f50001300340003c8bf00e9
:10a5a0000080fb0080004000e0912000808040009f
:10a5b000100020008008780003c8bf000081fb0065
:10a5c00003c8bf000080fb008000400040932000d3
:10a5d000008040009001780082004100a09f200090
:10a5e000008040000308780003c8bf000040e80076
:10a5f00003e8b70003c8bf00ea4f5000a3ff3600ce
:10a600000080fa003400f9004f0278004f01be00cc
:10a610004f00be003600f900004006000400fa00ba
:10a620000040eb0000e8b700640037009054800061
:10a630006101b80000c8bf000082fb0010002000cc
:10a6400001002000840278008502e9000300330045
:10a650000000400081804800fbff370002027800c4
:10a660000001780001007800820062000080610033
:10a670006101b800028fbe001e02be00c022dd00d4
:10a6800004002000048fbe001e01be00610ab80055
:10a69000048fbe001e00be000001710081817100a8
:10a6a00000c8bf000082fb00100020000100200055
:10a6b000840278008502e9000300330000004000b6
:10a6c00081804800fbff3700800f5100818f5900c7
:10a6d00037003a0000c8bf000080fb008000400047
:10a6e000e091200000804000100078000000e000b1
:10a6f0002f0032008bcabf008080fb00a0842000a6
:10a700008080400010c6b300804878008bcabf002c
:10a710000080fb000001e80000c8bf00c401dd00ac
:10a7200000c8bf000080fb00800040004093200074
:10a730000080400090007800003020000080600021
:10a740004800de0080c04100a084200000004100dd
:10a75000014878008bcabf000080fb000081e80040
:10a7600000c8bf000080fb00800040004093200034
:10a77000008040001000780080407800a084200015
:10a7800000004100014878008bcabf0063404000d0
:10a790008beab70000c8bf000080fb0080004000cb
:10a7a000e0912000808040000000eb0080087800ed
:10a7b00000c8bf000040e80000e8b70000c8bf00c4
:10a7c000ea4f500099ff36008bcabf00e24f50009d
:10a7d0000e00360067cabf000004e0000b003a001c
:10a7e000a0842000405388008bcabf006aeab700eb
:10a7f00010c0b3006beab70010c0b30067eab7003f
:10a800000040eb008beab7000d0d070010002000a0
:10a81000020007000080fa00000006000200fa00b3
:10a82000000f78001e0078004500dd00a200200027
:10a83000110009000280d800000f780006003700e0
:10a840000000000000000000000000000000000008
:10a85000000000001e0fe9001e00e000f8ff3a00b3
:10a860000080fa00000006000200fa00000f7800e5
:10a870000040eb0002e8b70005003700803e2000f2
:10a88000e6ff070002c8bf000040e80002e8b7008a
:10a8900002c8bf000080fb009e0f5000f7ff390088
:10a8a0000080fa00000006000400fa00204798002b
:10a8b0000000eb00000f7800ae409000f0c2b30043
:10a8c00080cf50000c003400ae40900090c3b30025
:10a8d00080cf500008003c001e007800c400dd005e
:10a8e0002e4090000000fb008080400000fd2f0003
:10a8f000008f4000070037001e007800c400dd0014
:10a900002e4090000000fb008080400090fc2f0053
:10a91000008f40001e0078000080fa000000060052
:10a920000000fa000080fa00000006000000fa00b3
:10a930000080fa00000006000000fa000080fa0023
:10a94000000006000000fa000080fa000000060087
:10a950000000fa00730b07000080fa0000000600f8
:10a960000000fa000080fa00000006000000fa0073
:10a97000fd0b07000080fa00000006000800fa0046
:10a98000000f780011079800220798001e00780039
:10a990003007980020072000be009000808f5000f4
:10a9a0002d00320020072000be009000808f500054
:10a9b0000a003e003e009000e20f50001a003200f4
:10a9c000be009000e38f5000190032003e0090005e
:10a9d000e10f500012003200200037004007200035
:10a9e000be009000808f500017003200400720000a
:10a9f000be009000808f50000f00390050072000eb
:10aa0000be009000808f50000d003200f0ff270044
:10aa1000be009000808f50000d0032000f00370004
:10aa2000d2ff07000d003700cdff07000b003700f5
:10aa3000c7ff070009003700bfff07000700370006
:10aa4000b7ff070005003700b8ff07000300370015
:10aa5000bcff0700010037000000000010002000cc
:10aa60000080fa00000006000200fa009ec0a90063
:10aa7000f00f200070248800f00f20005024880080
:10aa800020002000302588000000eb0040258800d1
:10aa90008644a900f009200080248800f0092000e5
:10aaa000602488008804a80000c020004800de0060
:10aab000c02488009424a8000000eb00b024880083
:10aac0006000b80060258800712588000000eb0058
:10aad000802588009424a9000040eb00004f7800f6
:10aae000070037001e80fb00c200dd0000c0200010
:10aaf000008140006000b8000089be001e4fe800e1
:10ab0000f0c0b3009e4f1000f6ff3600d0002000ca
:10ab10005025880002003700800020005024880063
:10ab20008ac4bf00684060000004e000faff3a00f9
:10ab30000040eb001ceab7000040eb0027eab7003a
:10ab400028cabf006040600028eab70029cabf00d9
:10ab50006040600029eab70094a4a9000040eb001f
:10ab6000004f78000d0037001e80fb00c1a22000be
:10ab700000004000810040000000eb0080087800e9
:10ab80001e80fb00a1a320000000400081004000c7
:10ab90000000eb00800878001e4fe80030c0b300d2
:10aba0009e4f1000f0ff360081c02000c0a22000a0
:10abb000010878000040eb0024eab7000000eb0039
:10abc000105188000080fa00000006003600f800ee
:10abd000809fbe00829fbe00849fbe00869fbe00f5
:10abe0003400f80000002000a00188000200fa00f4
:10abf00010518000e10f50000a003a0094c4bf00d9
:10ac00000044b2000004e00006003a00f00f20000b
:10ac1000502488008c04a8008c84a8002000200008
:10ac20001051880080c4bf00704060000004e00044
:10ac30000700320082c4bf00704060000004e000e2
:10ac4000030032000001200000248800a300070058
:10ac500088c4bf00624060000004e00002003200cf
:10ac60008ec0a900730037008ac4bf006140600035
:10ac70000004e000180032008cc4bf006140600096
:10ac80000004e0001400320077ff07009ec0a80017
:10ac9000400020001051880060a52000106088004e
:10aca00080c0b30000ecb70011c0200091407800d4
:10acb00030c0b30000c0600001ecb70011c020003c
:10acc00091407800c0c8b30000c0700001ecb7002c
:10acd00010002000502488008ac4bf00704060002b
:10ace0000004e000070032008cc4bf007040600028
:10acf0000004e000030032006e00070000012000a5
:10ad0000502488008ac4bf00644060000004e00052
:10ad10000a0032008cc4bf00644060000004e00000
:10ad200006003200120020008000eb0030072000f7
:10ad300012ff070040002000502488008ac4bf0092
:10ad400001c8b300014060000004e00006003200ca
:10ad50008cc4bf0001c8b300014060000004e000e3
:10ad6000010032003b0007008ac4bf00624060005f
:10ad70000004e0000a0032008cc4bf0062406000a2
:10ad80000004e00006003200120020008000eb000a
:10ad9000f0ff2700f9fe0700f00f20007024880064
:10ada00010518000e30f500002003e008ec0a90049
:10adb000200037008cc4bf00684060000004e00041
:10adc0001b0032000040eb00004f780015003700f8
:10add0008ac4bf00684060000004e0001400320034
:10ade0009024800046eab7008000200050248800ac
:10adf00046cabf008080fb00000f2000008060007a
:10ae00000000e00002003a003e00070004003700a6
:10ae100061a420000001eb0020072000d7fe0700fe
:10ae20001e4fe80030c0b3009e4f1000e8ff360010
:10ae30008ec0a9000080fa003400f9004f03be0064
:10ae40004f02be004f01be004f00be003600f900a9
:10ae5000004006000000fa00aac4bf006240600083
:10ae60000004e0000f003200b051800090409000dc
:10ae700000c8b30080cf500009003a00c0a22000f3
:10ae8000100078009040900040c8b30080cf500080
:10ae900003003a00b1518000c0c8b3009040980050
:10aea000aa24a90000082000502488000080fa008d
:10aeb000000006000000fa008284a80000012000c3
:10aec000502488000001eb008000eb0050072000b8
:10aed000aafe07000080fa00000006000000fa0049
:10aee0000001eb008000eb0040072000a3fe0700fc
:10aef0008284a90000012000002488000080fa005c
:10af0000000006000200fa0046cabf008080fb0075
:10af1000b0ff2f00008060000000e00035003a0024
:10af200046cabf008080fb00c00f20000080600088
:10af30004280de004200dd008000780000c020007a
:10af400000804000b0518800b0518000c05188009e
:10af500081a3200080a32000104078000024a200dc
:10af600080487800b051800010409000c2c3b30008
:10af70008240600040c3b30080cf50001b003a0005
:10af8000b051800090009000e0a52000808f50001c
:10af900014003a00b151800060a520009000980094
:10afa0000040eb00004f78000b0037001e80fb00d4
:10afb0008000780060a52000008140001e80fb001a
:10afc00080007800e0a5200000804000104078005c
:10afd000004978001e4fe80070c0b3009e4f10007b
:10afe000f2ff36000c000700090037002a000700b6
:10aff0000700370046cabf008080fb00b0ff2f006b
:10b0000000806000e80f500001003a003a0007009d
:10b010000080fa00000006000000fa00c0a2200034
:10b02000100078009040900000c8b30000c060009d
:10b030000004e00004003200c0a22000900078006c
:10b040000040eb00904098000040eb0042eab7005f
:10b050000040eb0043eab7001dcabf00604060003b
:10b060001deab7001ecabf00604060001eeab700bc
:10b070000040eb001ceab7007f0007000001eb0076
:10b080008000eb00300020003cfe070015020700a6
:10b090000080fa00000006000000fa0043cabf006a
:10b0a000e24f500002003a00220307001000370070
:10b0b0004b000700405280000000e0000a003a0008
:10b0c000c151800080c0b30080487800c151800029
:10b0d00060a5200090009800c1518000c0c8b30056
:10b0e00090409800020037000000eb0040528800ba
:10b0f0000080fa00000006000200fa00c0a2200052
:10b1000010007800104090000080fb004600de0038
:10b1100061406000004f7800c1a22000c0a2200062
:10b12000104078000024a200804878001051800070
:10b13000e80f50000b003a0058cabf000080fb0027
:10b14000b0248800b02480000000e000030032003a
:10b15000000120001051880002003700400020004c
:10b160001051880043cabf00e14f500019003a0057
:10b17000c0a2200090007800e0a520009000980078
:10b180006802070042cabf00e24f500005003a00c3
:10b19000c0a220009000780040c8b3009040980002
:10b1a0000d0037001e04e00005003a00c0a2200098
:10b1b0009000780080ccb3009040980006003700e3
:10b1c000c0a220009000780080c8b3009040980092
:10b1d00001003700020007000080fa0000000600ae
:10b1e0000200fa000040eb0043eab700c0a22000d2
:10b1f000900078000040eb0090409800c0a2200032
:10b20000100078000020a200000f78009e00780057
:10b210000040eb009040980071a22000914078001f
:10b2200000c8b30000c060000004e000100032005d
:10b230002acabf008080fb002bcabf000080fb0031
:10b240004800dd00010070000000e000070032004f
:10b250002acabf008080fb002bcabf000080fb0011
:10b260004800dd00010070000000010027eaa9008d
:10b270000080fa00000006000400fa0056cabf0071
:10b280000046b2000004e00058003a0057cabf0070
:10b290000080fb006101b900028fbe00b0002000f9
:10b2a000010020001e01be00800f5100818f590057
:10b2b0004e003e001e00be0000600100240037006a
:10b2c00025003700490037002300370047003700ca
:10b2d0000600370009003700400037000b00370038
:10b2e000080037001e003700330037001ceaa800b2
:10b2f00080002000105188003c003700a4000700a7
:10b300003a0037000a0307003800370042a2200045
:10b31000f00f2000800061001acabf00604060008a
:10b32000014070001aeab700c810de001bcabf0057
:10b3300060406000014070001beab7001c0aa800d2
:10b3400010c0b3001deab7001ceaa80027003700b0
:10b350000e010700250037002600070023003700f4
:10b360005acabf000080fb008000780040a3200084
:10b370000080400000017800f00f20008000610094
:10b380001acabf0060406000014070001aeab700ae
:10b39000c810de001bcabf006040600001407000a2
:10b3a0001beab7001c0aa80010c0b3001deab700d2
:10b3b0001ceaa8000d0037001ceaa8005acabf000a
:10b3c0008080fb0082a520001241780040a320006d
:10b3d0000080400002487800040037000001eb00c4
:10b3e0008000eb002000200064fd07000080fa00d0
:10b3f000000006000400fa0058cabf00e14f5000e8
:10b400000d003a0056cabf007f4060000004e00013
:10b4100009003a001ceaa80057cabf00e34f5000d9
:10b4200003003a001000200000518800020037009d
:10b430000000eb000051880058cabf000004e00083
:10b4400051003a0056cabf007f406000e24f5000f2
:10b450004d003a005acabf006f4060000004e0008f
:10b46000490032001ceaa8005acabf0001c8b30054
:10b47000014060000004e00009003a005acabf0021
:10b480006f4060000080fb00a1a32000000040008e
:10b4900001004000100078001007980008003700f5
:10b4a0005acabf006f4060000080fb00c1a22000ac
:10b4b00000004000010040001000780010079800d4
:10b4c00057cabf00e34f500004003a009e009000ae
:10b4d00040c8b300904098002b0037005acabf0004
:10b4e0006f4060000080fb0000004000800078009a
:10b4f000a04a200000804000000f78001e00780065
:10b5000090407800d0cfb30080c060001e0078006b
:10b5100001487800a1a520009140780000c8b30040
:10b5200000c060000004e0000c0032009e009000ab
:10b530000040eb00904098008e80e8000e80e8000c
:10b54000104078000024a200804878009e009000ff
:10b5500000c4b300904098000b0037009e0090009c
:10b5600080c8b300904098008e80e8000e80e8000c
:10b57000104078000024a200804878009e009000cf
:10b5800080ccb300904098000080fa0000000600d4
:10b590000200fa0061a520009140780000c8b300c5
:10b5a00080cf500077003a0000ccb3001ceab7000f
:10b5b00059cabf000080fb00000f78001e00780011
:10b5c000e20f50001b0032001e007800e30f500015
:10b5d0003e0032001e007800e10f500001003200f2
:10b5e0006600370062832a00f00f200080006100af
:10b5f0001acabf0060406000014070001aeab7003c
:10b60000c810de001bcabf0060406000014070002f
:10b610001beab7001dcabf00604060002041b300b4
:10b620001deab7001ecabf00604060001eeab700f6
:10b630005400370058cabf000080fb0000004000e3
:10b6400080007800a08b2a00008040001001780064
:10b65000f00f2000800061001acabf006040600047
:10b66000014070001aeab700c810de001bcabf0014
:10b6700060406000014070001beab7001acabf00ba
:10b680008080fb001bcabf000080fb004800dd007b
:10b69000010070000080e80010017800f00f200029
:10b6a000800061001dcabf00604060000140700062
:10b6b0001deab700c810de001ecabf00604060006f
:10b6c000014070001eeab7002e00370058cabf00c4
:10b6d000e24f500026003e0058cabf000080fb0029
:10b6e0000000400080007800c08b2a0000804000ed
:10b6f00010017800f00f2000800061001acabf001e
:10b7000060406000014070001aeab700c810de0017
:10b710001bcabf0060406000014070001beab70018
:10b720001acabf008080fb001bcabf000080fb005c
:10b730004800dd0001007000104078000081fb002f
:10b74000f00f2000800061001dcabf006040600053
:10b75000014070001deab700c810de001ecabf001d
:10b7600060406000014070001eeab700050037002d
:10b770000040eb001ceab700020037000040eb007d
:10b780001ceab7000080fa00000006000400fa007e
:10b790000040eb005eeab7000040eb005feab70054
:10b7a00056cabf007f4060000080fb001007980071
:10b7b0001e009000e10f5000120032001e009000a9
:10b7c000e20f5000110032001e0090000000e00067
:10b7d000010032002d0037001ceaa8005ecabf003d
:10b7e0000004a0005eeab70000518000e10f5000a5
:10b7f00026003a005ecabf000014a0005eeab7004f
:10b80000220037001ceaa800200037001ceaa8002c
:10b810005acabf0001c8b300014060000004e00044
:10b8200009003a005acabf006f4060000080fb0068
:10b83000a1a320000000400001004000100078009b
:10b84000000f7800080037005acabf006f40600040
:10b850000080fb00c1a22000000040000100400069
:10b8600010007800000f78001e0078001040900053
:10b870000080fb004200de00610060000004e00088
:10b880000200320010c0b3005eeab7001ccabf005d
:10b8900001c8b300014060000004e0000f00320066
:10b8a000e2a52000f00f2000800061001acabf004e
:10b8b00060406000014070001aeab700c810de0066
:10b8c0001bcabf0060406000014070001beab70067
:10b8d0001c0aa80020c0b3001deab7000080fa00cf
:10b8e000000006000000fa0094a4a9001ccabf00d2
:10b8f00001c8b300014060000004e00027003a00e6
:10b9000027cabf0001c8b300014060000004e00086
:10b910001400320020c0b30043eab700c0a22000e8
:10b92000900078000040eb0080487800c0a2200022
:10b930009000780080ccb30090409800c151800006
:10b9400080c0b30080487800c1518000e0a520008d
:10b9500090009800c151800080ccb30090409800c6
:10b960006e003700c151800080c0b300804878006d
:10b97000c151800060a5200090009800c151800056
:10b98000c0c8b30090409800c0a22000900078008a
:10b9900040c8b300904098006000370027cabf003d
:10b9a00001c8b300014060000004e0005b003a0001
:10b9b00056cabf0001c8b300014060000004e000a7
:10b9c000430032005ccabf008080fb005dcabf003c
:10b9d0000080fb004800dd000100700000017800dd
:10b9e0001dcabf008080fb001ecabf000080fb0094
:10b9f0004800dd0001007000800f5100120031008e
:10ba00005ccabf008080fb005dcabf000080fb00f5
:10ba10004800dd000100700000017800f00f2000f8
:10ba2000800061001dcabf006040600001407000de
:10ba30001deab700c810de001ecabf0060406000eb
:10ba4000014070001eeab7003600070010c0b300c6
:10ba500043eab700c151800080c0b300804878003d
:10ba6000c151800060a5200090009800c151800065
:10ba700000c8b300904098000000eb0040528800de
:10ba8000b151800080c0b30080487800b15180007f
:10ba900060a5200090009800b151800040c8b3001c
:10baa000904098001000200040528800c0a2200062
:10bab00090007800e0a5200090009800c0a220002f
:10bac0009000780080ccb3009040980013003700bd
:10bad00020c0b30043eab700c0a220009000780065
:10bae0000040eb0080487800c0a220009000780061
:10baf00080ccb30090409800c151800080c0b3005a
:10bb000080487800c1518000e0a520009000980096
:10bb1000c151800080ccb300904098000080fa00b2
:10bb2000000006000200fa001dcabf008080fb0072
:10bb30001ecabf000080fb004800dd00010070004d
:10bb4000e70f500013003e001dcabf008080fb00bd
:10bb50001ecabf000080fb004800dd00010070002d
:10bb6000000f780042cabf000004e00003003a0062
:10bb700010c0b30042eab7000800370042cabf0055
:10bb8000e14f500005003a0020c0b30042eab70080
:10bb90000200370080002000000f7800c0a22000c3
:10bba00010017800c0a220001000780090409000a2
:10bbb0001e40900000c0700010419800c0a22000fc
:10bbc000900078001e407800804878001dcabf00b1
:10bbd0008080fb001ecabf000080fb004800dd0023
:10bbe00001007000800078001e0078000081500085
:10bbf000f00f2000800061001dcabf00604060009f
:10bc0000014070001deab700c810de001ecabf0068
:10bc100060406000014070001eeab700e0a520000f
:10bc2000205288001ccabf00614060000004e00090
:10bc30003b003a001b003700225280001acabf00a6
:10bc40008080fb001bcabf000080fb004800dd00b5
:10bc500001007000800078001140780000497800f1
:10bc60000200e800205288000101e800f00f2000e7
:10bc7000800061001acabf0060406000014070008f
:10bc80001aeab700c810de001bcabf00604060009f
:10bc9000014070001beab7001e0078000000e900b8
:10bca000000f78001e0078000000e000e2ff3a007c
:10bcb0001e003700225280001acabf008080fb009d
:10bcc0001bcabf000080fb004800dd0001007000bf
:10bcd0008000780011407800004978000200e800f8
:10bce000205288000101e800f00f20008000610070
:10bcf0001acabf0060406000014070001aeab70035
:10bd0000c810de001bcabf00604060000140700028
:10bd10001beab7001e0078000000e900000f780061
:10bd20001e0078000000e000e2ff3a000080fa0008
:10bd3000000006000200fa00b05180009040780038
:10bd4000114798001e4090000081fb0028cabf00e8
:10bd50008080fb0029cabf000080fb004800dd0096
:10bd600001007000800f51000700360028cabf0094
:10bd70008080fb0029cabf000080fb004800dd0076
:10bd8000010070001047980028cabf008080fb00a7
:10bd900029cabf000080fb004800dd0001007000e0
:10bda000800078001e4090000080fb000081500061
:10bdb000f00f20008000610028cabf0060406000d2
:10bdc0000140700028eab700c810de0029cabf0091
:10bdd000604060000140700029eab7000040eb00bd
:10bde000004f78001900370025cabf008080fb0093
:10bdf00026cabf000080fb004800dd000100700083
:10be0000000178009e80fb00e0a52000008040003b
:10be100010407800004978000201e800f00f20008f
:10be20008000610025cabf006040600001407000d2
:10be300025eab700c810de0026cabf0060406000d7
:10be40000140700026eab7001e4fe8001e40900037
:10be50009e4f1000e4ff390028cabf008080fb001d
:10be600029cabf000080fb004800dd00010070000f
:10be70000000e00013003200c151800080c0b30018
:10be800080487800c1518000e0a520009000980013
:10be9000b0518000104090000044b2000004e00067
:10bea00004003a00c151800080ccb300904098005b
:10beb0001d003700c151800080c8b3009040980039
:10bec00019003700c151800080c0b300804878005d
:10bed000c151800060a5200090009800c1518000f1
:10bee00040c8b300904098002acabf008080fb0081
:10bef0002bcabf000080fb004800dd00010070007d
:10bf00000000e000070032002acabf008080fb006a
:10bf10002bcabf000080fb004800dd00010070005c
:10bf20000000010027eaa9000080fa0000000600d6
:10bf30000200fa001ceaa8006000b8006025880032
:10bf4000712588000000eb00802588000040eb0090
:10bf5000004f7800070037001e80fb00c200dd00a4
:10bf600000c02000008140006000b8000089be00d1
:10bf70001e4fe800f0c0b3009e4f1000f6ff3600e1
:10bf80009424a8000040eb0034eab7009424a900f0
:10bf900081c02000c0a220000108780000c020005d
:10bfa000b0518800b0518000c051880058cabf000d
:10bfb00024eab70024cabf000004e00003003a00ee
:10bfc00000012000105188000600370012002000f8
:10bfd00041a220001000200068fa070000022000a3
:10bfe000105188000080fa00000006000400fa00ea
:10bff000204798003147980000c02000000f7800cb
:10c000002e4090000080fb0000004000800078007f
:10c010003e4090000080fb00008040004300dd00b7
:10c020004200de004200dd001e0f40009e0078004e
:10c03000114090000074a100904098003e40900094
:10c040000004e00007003a002e4090000080fb0052
:10c05000a1a3200000004000010040001e0878005d
:10c06000060037002e4090000080fb00c1a2200097
:10c0700000004000010040001e0878001e0178000a
:10c0800092409000f0cbb30000c0600010419800d7
:10c090001e007800640140009240900000c4b3008c
:10c0a00000c07000104198000080fa0000000600f7
:10c0b0000400fa0020479800314798002e40900075
:10c0c0000080fb000000400080007800a04a2000b3
:10c0d00000804000000f78001e007800be409000f5
:10c0e000014878003e4090000080fb004300de00e5
:10c0f000610060000004e000030032008040eb00bb
:10c100002e409000b9ff07003e4090000080fb00e9
:10c110004200de00610060000004e0000300320025
:10c1200011c0b3002e409000b0ff07000080fa005d
:10c13000000006000400fa002047980031479800ec
:10c140002e4090000004e0000e003a00c151800033
:10c1500080c0b30080487800c151800060a52000f5
:10c1600090009800c1518000c0c8b3009040980072
:10c17000c0a220009000780040c8b3009040980012
:10c18000230037002e4090000080fb00000040009c
:10c19000800078003e4090000080fb00008040005e
:10c1a0004300dd008000780000c0200000804000d7
:10c1b000000f78001e0078009040900040c8b30047
:10c1c00080c070001e007800114098002e40900042
:10c1d0000080fb0000004000800078003e4090009e
:10c1e0000080fb00008040004300dd0080007800fc
:10c1f00040c02000008f40001e007800904090005a
:10c2000040c8b30080c070001e0078001140980044
:10c210000080fa00000006000a00fa00204798009b
:10c220003147980022079800634798003e409000ed
:10c230000004e000070032002e4090000080fb0068
:10c24000c1a220000000400001004000100f780053
:10c25000060037002e4090000080fb00a1a32000c4
:10c260000000400001004000100f78001e00e000b8
:10c2700003003a000000eb00400798003900370047
:10c280002e009000800078001e00780011009800b9
:10c290001e007800ee409000014878001e007800f3
:10c2a0001040900002c4b300824060001e0078007d
:10c2b000114098001e0078009040900080c8b300a4
:10c2c00080c070001e007800114098003e40900031
:10c2d0000004e000110032002e4090000080fb00be
:10c2e0000000400080007800c0a2200000804000d4
:10c2f000000178002e4090000080fb00000040000c
:10c3000080007800c0a2200000804000104078002b
:10c310000024a20000497800100037002e40900051
:10c320000080fb000000400080007800a0a32000f7
:10c3300000804000000178002e4090000080fb004b
:10c340000000400080007800a0a320000080400092
:10c35000104078000024a200004978001e007800f8
:10c36000400798004e0090000080fa000000060090
:10c370000600fa00004f780094c4bf000042b200eb
:10c380000004e0005f0032001e80fb00c1a220001c
:10c390000000400001004000100378001e80fb00f8
:10c3a000c1a2200000004000010040001000780001
:10c3b0001000be00020420000300200000027800ec
:10c3c000810278000200780083007800000162009a
:10c3d000018062006102b8001407980025079800e8
:10c3e0001e009000ae009000c000dd0000002000a4
:10c3f00010079800210798001e009000ae009000e2
:10c400006112b80014079800250798001e019000db
:10c41000ae0190000200700083807000008bbe00af
:10c420001e80fb00c1a2200000004000010040006f
:10c43000100278001e80fb00c1a220000000400016
:10c4400001004000100078001001be000004200030
:10c45000010020000000690081806900008abe00a0
:10c460001e80fb000000400080007800c0a2200079
:10c4700000804000000178001e80fb0000004000aa
:10c4800080007800c0a220000080400010407800aa
:10c490000024a200004978001e80fb00c1a22000f9
:10c4a0000000400001004000100178001e80fb00e9
:10c4b000c1a22000000040000100400010007800f0
:10c4c000104090000044b200104198001e80fb0014
:10c4d000c1a22000000040000100400010017800cf
:10c4e0001e80fb00c1a220000000400001004000af
:10c4f000100078009040900000c4b30000c06800b5
:10c50000104198000080fa00000006000000fa00c8
:10c510000000eb00a02488000000eb0060248800ed
:10c520000000eb00105188000080fa0000000600b7
:10c530000000fa00105180000000e00016003a00f0
:10c540000000eb00a02488000000eb0060248800bd
:10c5500020002000302588000000eb0040258800e6
:10c560008644a900f009200080248800f0092000fa
:10c57000602488009ec0a800010037009404a80031
:10c5800094c4bf00614060000004e000fbff320083
:10c5900010002000105188000080fa000000060002
:10c5a0000600fa0042c0bf000080fb004500de002c
:10c5b0000080fb0020079800900280001007980080
:10c5c000ff3ffc00210420009140780000ceb30022
:10c5d00000c0700042e0b7001e009000900288008a
:10c5e00011e3070090028000000f7800ff3ffc007d
:10c5f0002e00900067406000c500dd0042c0bf0013
:10c600007f4060000140700042e0b7001e007800eb
:10c61000900288000080fa00000006000c00fa007a
:10c620006047980071479800024f98009001800081
:10c63000000f780002c02200030020006e4090002e
:10c640008080fb0000c020000088b90001002000ad
:10c6500002014000838148007e4090000080fb0082
:10c660004a00dd00010020000200400083804800f5
:10c670004008de00010020009001880000c0220078
:10c6800001002000000178006e4090000080fb0057
:10c690006300b900800078007e4090000080fb00bd
:10c6a000008040004a00dd000000410020079800a3
:10c6b0002e009000d8e207008040780000c0eb0018
:10c6c00000c06000304798000e4890000080fb00da
:10c6d000500798005e009000f30f50000d003200ec
:10c6e0005e009000f40f5000100032005e009000d9
:10c6f000f20f500001003200120037003e4090005f
:10c700000080fb00640060004280de00204798004b
:10c710000e0037003e4090000080fb006800600083
:10c720004380de0020479800080037003e4090001c
:10c730000080fb00700060004480de00204798000d
:10c74000020037000040eb00204798001e007800f0
:10c75000900188002e4090000080fb000080fa00cd
:10c76000000006000600fa00404798005147980074
:10c7700090018000000f780002c02200030020001a
:10c780004e4090008080fb0000c020000088b9006f
:10c790000100200002014000838148005e409000bb
:10c7a0000080fb004a00dd00010020000200400084
:10c7b000838048004008de000100200090018800ce
:10c7c00020042400003b880000c02200010020005b
:10c7d000000178004e4090000080fb006300b9002b
:10c7e000800078005e4090000080fb0000804000e8
:10c7f0004a00dd0000004100100798009e009000f4
:10c800001e00900099e2070065ff07001e007800f7
:10c81000900188000080fa00000006000c00fa0079
:10c82000204f98000000eb00400798009001800026
:10c83000000f78000000eb0030079800030037007d
:10c840003e0090000000e800300798003e00900095
:10c85000e20f500007003c003e009000804078004e
:10c8600032c1b3002e4890006cff0700e10f50006a
:10c87000f3ff320002c02200030020002e48900087
:10c880008080fb0000c020000088b900010020006b
:10c8900002014000838148003e0090004a00dd0014
:10c8a0000100200002004000838048004008de00b4
:10c8b000010020009001880000c02200010020003b
:10c8c000000178002e4890000080fb006300b90052
:10c8d000800078003e009000008040004a00dd00ab
:10c8e00000004100100798004e0090000080e80012
:10c8f000400798001e0090000080e8001007980094
:10c900001e00900044e207008040780000c0eb0069
:10c9100000c0600040479800ce009000f03f20002b
:10c92000808f500003003c004e409000e14f4000db
:10c93000edff3a00ce00900000402000808f5000b4
:10c9400002003a000000eb00400798001e0078004b
:10c95000900188004e0090000080fa000000060060
:10c960001600fa00881f7800205798009001800078
:10c97000600798000000eb00000f980003003700ec
:10c980000e0890000000e800000f98000e089000cc
:10c99000e20f500007003c000e0890008040780035
:10c9a00032c1b3002e5090001cff0700e10f500071
:10c9b000f3ff32000e089000e30f500006003a002b
:10c9c0006e00900090018800aa6aa8003000200044
:10c9d000200f9800630137000e0890000000e80067
:10c9e000700798007e009000e30f500015003a0099
:10c9f0000000eb0070079800120037007e009000e6
:10ca00000000e800700798007e009000e30f5000df
:10ca100002003a000000eb0070079800fe00900052
:10ca20000e089000808f500006003a006e009000c3
:10ca300090018800aa2aa80010002000200f98006a
:10ca4000480137007e0090008040780042c1b3006a
:10ca50002e509000f1fe07000000e000e7ff3200da
:10ca600002c02200030020002e5090008080fb00b6
:10ca700000c020000088b900010020000201400031
:10ca8000838148007e0090004a00dd000100200004
:10ca900002004000838048004008de0001002000c2
:10caa0009001880000c022000100200000017800f1
:10cab0002e5090000080fb006300b90080007800d9
:10cac0007e009000008040004a00dd000000410030
:10cad000400798002e50900050ff07000000e00033
:10cae00001003200aa4aa800aacabf00004f78007d
:10caf000aa0aa9000000eb003007980010002400eb
:10cb0000003b8800ce0090000080eb00d7e10700da
:10cb1000ce009000f00f2000d0e107004e00900002
:10cb20000080e800400798000040eb004047980074
:10cb30003e0090000000e800300798003400370005
:10cb40002e5090008080fb00f00f20000088b9007c
:10cb5000800078004e4090000080fb000080400084
:10cb6000b301070010079800505580006100600075
:10cb70000000e00002003200aa0aa9000d00370000
:10cb80001e009000ce009000b8e107004e409000db
:10cb90000080fb00ce009000b0e107004e00900046
:10cba0000080e800400798003e0090000000e80088
:10cbb000300798004e4090000040e8004047980041
:10cbc0000c003700ce0090000080eb00a7e10700ca
:10cbd000ce009000f00f2000a0e107004e00900072
:10cbe0000080e800400798003e0090000000e80048
:10cbf000300798004e409000e14f400004003a009a
:10cc0000be009000f0032000808f5000edff340044
:10cc10004e409000e14f400004003200be00900002
:10cc2000f0032000808f5000c5ff34005cfe070039
:10cc30000000eb00300798004e409000e14f4000ac
:10cc4000f3ff3a001e407800aaeab70002c02200b3
:10cc5000030020002e5090008080fb0000c02000c8
:10cc60000088b900010020000201400083814800d3
:10cc70007e0090004a00dd0001002000020040001c
:10cc8000838048004008de000100200090018800f9
:10cc900000c0220001002000000178002e5090000a
:10cca0000080fb006300b900800078007e009000e7
:10ccb000008040004a00dd00000041000080e800e4
:10ccc00040079800ce0090004e0090000000e80061
:10ccd00040079800010078004fe1070040479800a6
:10cce000ce0090004e0090000000e8004007980041
:10ccf000010078004ae10700100798002100370082
:10cd00002e5090008080fb00f00f20000088b900ba
:10cd1000800078004e4090000080fb0000804000c2
:10cd200043010700800078001e009000808f5000b3
:10cd3000060032006e00900090018800aaeaa80068
:10cd400070002000200f980086003700ce00900071
:10cd50004e0090000000e8004007980001007800b5
:10cd60002de1070040479800ce0090004e00900053
:10cd70000000e800400798000100780028e1070063
:10cd8000100798004e409000e14f4000dcff3a0051
:10cd900000c0220001002000000178002e50900009
:10cda0000080fb006300b900800078000e0890004e
:10cdb000008040004a00dd0000004100500798005c
:10cdc00000c0220001002000000178002e509000d9
:10cdd0000080fb006300b900800078007e009000b6
:10cde000008040004a00dd0000004100400798003c
:10cdf00002c02200030020002e5090008080fb0023
:10ce000000c020000088b90001002000020140009d
:10ce1000838148000e0890004a00dd0001002000d8
:10ce200002004000838048004008de00010020002e
:10ce3000900188005e009000f9e00700100798005c
:10ce40005e009000f4e00700404798007e009000ec
:10ce50000000e00003003a001e0090000000e8001f
:10ce6000100798001e009000e30f500005003600e8
:10ce7000aa2aa800f0ceb300ce40900000c0600007
:10ce80004047980002c02200030020002e5090006e
:10ce90008080fb0000c020000088b9000100200055
:10cea00002014000838148007e0090004a00dd00be
:10ceb0000100200002004000838048004008de009e
:10cec00001002000900188004e4090000080fb008f
:10ced000ce009000e1e007001e009000ce00900020
:10cee000e2e0070030002400003b8800acfd0700b2
:10cef0004e4090000084fb004e009000c6e007000a
:10cf0000800f540006003a004e009000c4e0070075
:10cf1000800078001e009000808f500006003200d4
:10cf20006e00900090018800aaeaa800700020001e
:10cf3000200f98000b0037000e089000804078000a
:10cf40002e50900007fe07006e00900090018800b0
:10cf5000505580000000d100614060000080fb005f
:10cf6000200f98002e0890004f0478000080fa00ef
:10cf7000000006000e00fa009001800040079800b3
:10cf800000c02200010020004008de000100200057
:10cf9000900188000040eb00004f78009c003700b3
:10cfa0000040eb00304f98000040eb00204f98000d
:10cfb0000000eb00100798000000eb00300798001d
:10cfc000030037003e0090000000e80030079800a2
:10cfd0003e009000e20f500007003e003e0090002f
:10cfe0008040780042c1b3001e4078008bfd0700ee
:10cff0000000e000f3ff32003e009000e30f50001d
:10d0000006003a004e00900090018800aa2aa8006d
:10d010001000200060079800820037000000eb003d
:10d02000300798000d0037003e00900080407800e7
:10d0300032c1b3001e40780078fd07000000e00018
:10d0400003003a003e4890000040e800304f98004e
:10d050003e0090000000e800300798003e0090007d
:10d06000e20f5000f0ff36003e4890000004e00060
:10d0700022003a008040eb001e407800b9fd070016
:10d0800002c02200030020009e80fb0000c02000a0
:10d090000088b900010020000200400083804800a1
:10d0a0004008de00010020009001880000c022003e
:10d0b00001002000000178009e80fb0000c02000dd
:10d0c0000088b900000041002007980030002400cb
:10d0d000003b8800ae0090000000eb0063e007001a
:10d0e000ae009000300f20005ce007002cfd070030
:10d0f0004e00900090018800440037003e489000a8
:10d10000e14f500003003a004e009000900188006b
:10d110003e0037003e489000e24f500035003a0094
:10d1200032c1b30021c0b3001e4078003bfd0700b0
:10d130000000e0000b003a0032c1b3008040eb0079
:10d140001e40780035fd07000000e00005003a00b1
:10d1500020002000300798000040eb00204f98008e
:10d16000180037000000eb0030079800030037007c
:10d170003e0090000000e800300798003e0090005c
:10d180008040780032c1b3001e40780023fd0700c4
:10d19000e10f500003003a003e009000e20f500003
:10d1a000f3ff36003e0090000040e800204f98005a
:10d1b0002e489000e34f500002003a000040eb0080
:10d1c000204f9800ae4890001e40780065fd070093
:10d1d0001e40780091fd07000000e00002003a00c8
:10d1e0001e407800defd07004e0090009001880090
:10d1f000060037004e00900090018800aacaa800df
:10d200006000200060079800060037001e4fe8000d
:10d2100010c0b3009e4f100061ff36000000eb000d
:10d22000600798006e0090000080fa000000060081
:10d230001000fa0060079800ee009000d01f200058
:10d24000808f500004003600aaaaa8000080eb00de
:10d2500070079800660037006e009000f20f200003
:10d26000110009000280d800004f78009001800072
:10d27000500798000000eb004007980003003700bb
:10d280004e0090000000e800400798004e0090001b
:10d29000e20f500007003e004e00900080407800f2
:10d2a00032c1b3001e407800dcfc0700e10f5000e3
:10d2b000f3ff32004e009000e30f500006003a00ea
:10d2c0005e00900090018800aacaa8000080eb00d0
:10d2d000700798004600370002c0220003002000bb
:10d2e0009e80fb0000c020000088b90001002000e3
:10d2f00002014000838148004e0090004a00dd009a
:10d300000100200002004000838048004008de0049
:10d31000010020009001880000c0220001002000d0
:10d32000000178009e80fb0000c020000088b9004a
:10d33000800041004e0090004a00dd000080400067
:10d34000e03fb00030079800002020001007980050
:10d350003e009000b0df0700200798003e009000dc
:10d360000080e900300798001e0090000000e900ee
:10d37000100798001e0090000000e0000900320035
:10d380006e009000f20f2000110009000280d8000a
:10d390008000fd00800078002e009000808f5000fb
:10d3a000ebff3a001e0090000000e00006003a008b
:10d3b000aa0aa8005e009000900188000080eb009f
:10d3c000700798000a0037003e0090000080e800d7
:10d3d000300798003e00900091df0700200798007a
:10d3e0005e009000900188002e0090007007980069
:10d3f0007e0090000080fa00000006001400fa0091
:10d4000070079800010f98008e089000d01f200030
:10d41000808f500004003600aaaaa8005000200007
:10d42000100f9800bc0037000e089000f20f20008b
:10d43000110009000280d800000f780090018000e0
:10d440005007980030002400003b88000000eb00eb
:10d4500040079800030037004e0090000000e800ed
:10d46000400798004e009000e20f500007003c007b
:10d470004e009000804078001e00780032c1b3005a
:10d4800066fc0700e10f5000f3ff32004e009000f1
:10d49000e30f500006003a005e0090009001880003
:10d4a000aacaa80060002000100f98009a00370058
:10d4b00002c02200030020009e00780000c020006f
:10d4c0000088b9000100200002014000838148006b
:10d4d0004e0090004a00dd000100200002004000e4
:10d4e000838048004008de00010020009001880091
:10d4f00000c0220001002000000178001e0078001a
:10d500006300b900800078004e0090000080400069
:10d510004a00dd000000410030079800aacabf00a1
:10d52000204798000e08900041ff07008000780017
:10d530007e009000808f50000b003a005055800014
:10d54000610060000000e00007003a005e0090000b
:10d55000900188002e409000aaeab7000000eb007e
:10d56000100f98006c0037002e409000aaeab70018
:10d570001e007800a9fc0700200798002e009000ec
:10d580000000e00006003a005e0090009001880074
:10d59000aa8aa80040002000100f98005e00370003
:10d5a000be0090002e0090000080400030079800e0
:10d5b0007e009000be0090002cdf07000e08900057
:10d5c000f20f2000110009000280d8008000fd0049
:10d5d000be00900021df0700f1fb07000000000003
:10d5e000000000003e0090000ddf07008040780042
:10d5f00000c0eb0000c06000404f98004e48900013
:10d600000081fb00fe009000f00f20000080600011
:10d61000800f5100060032005e00900090018800eb
:10d62000aaeaa80070002000100f98003a00370006
:10d630003e009000f8de07008040780000c0eb005c
:10d6400000c06000404f98004e4890008080fb0072
:10d650000e089000f20f2000811f780011000900d1
:10d660000280d8000001780001007800cf00780027
:10d67000808f5000060032005e009000900188000c
:10d68000aaeaa80070002000100f980022003700be
:10d690003e0090000000e800300798003e00900037
:10d6a000dfde07004880de008040780000c0eb002d
:10d6b00000c06000404f98004e4890000081fb0081
:10d6c0007e009000c800de00f00f200000806000a7
:10d6d000800f5100060032005e009000900188002b
:10d6e000aaeaa80070002000100f98000a00370076
:10d6f000ae009000e03f2000808f500002003a0012
:10d700001e00780096fc07005e00900090018800e3
:10d710000000eb00100f98001e0890000080fa0037
:10d72000000006000200fa0056cabf007f406000f9
:10d73000e14f50008a003a0056cabf0002c6b3004b
:10d740008240600000c2b30080cf500084003a00e5
:10d750005acabf000004e000030032005acabf00ea
:10d76000e14f50007e003a0057cabf000080fb0026
:10d77000000f7800000220009e007800808f50008b
:10d7800038003200000220001e017800800f510096
:10d7900007003c001e0078000000e0000d00320091
:10d7a0009e007800e18f5000200032006c003700ae
:10d7b000100220001e017800800f51004f0032003f
:10d7c000200220009e007800808f5000610032000f
:10d7d0006300370002a82000f00f200080006100e5
:10d7e0001acabf0060406000014070001aeab7002a
:10d7f000c810de001bcabf0060406000014070001e
:10d800001beab7001dcabf00604060000034a000e2
:10d810001deab7001ecabf00604060001eeab700e4
:10d820001c0aa8001ceaa8004d00370002a820002e
:10d83000f00f2000800061001acabf006040600045
:10d84000014070001aeab700c810de001bcabf0012
:10d8500060406000014070001beab7001ceaa800ad
:10d860003f0037005ccabf008080fb005dcabf007c
:10d870000080fb004800dd0001007000000178001e
:10d88000f00f20008000610028cabf0060406000e7
:10d890000140700028eab700c810de0029cabf00a6
